{
  "contractName": "BackerRewards",
  "abi": [
    {
      "inputs": [
        {
          "internalType": "address",
          "name": "_projectDetailsAddress",
          "type": "address"
        }
      ],
      "stateMutability": "nonpayable",
      "type": "constructor"
    },
    {
      "inputs": [],
      "name": "projectDetails",
      "outputs": [
        {
          "internalType": "contract ProjectDetails",
          "name": "",
          "type": "address"
        }
      ],
      "stateMutability": "view",
      "type": "function",
      "constant": true
    },
    {
      "inputs": [
        {
          "internalType": "uint256",
          "name": "",
          "type": "uint256"
        },
        {
          "internalType": "address",
          "name": "",
          "type": "address"
        }
      ],
      "name": "rewardChoices",
      "outputs": [
        {
          "internalType": "bool",
          "name": "choseRewards",
          "type": "bool"
        },
        {
          "internalType": "bool",
          "name": "choseShares",
          "type": "bool"
        }
      ],
      "stateMutability": "view",
      "type": "function",
      "constant": true
    },
    {
      "inputs": [
        {
          "internalType": "uint256",
          "name": "_projectId",
          "type": "uint256"
        }
      ],
      "name": "chooseRewards",
      "outputs": [],
      "stateMutability": "nonpayable",
      "type": "function"
    },
    {
      "inputs": [
        {
          "internalType": "uint256",
          "name": "_projectId",
          "type": "uint256"
        }
      ],
      "name": "chooseShares",
      "outputs": [],
      "stateMutability": "nonpayable",
      "type": "function"
    },
    {
      "inputs": [
        {
          "internalType": "uint256",
          "name": "_projectId",
          "type": "uint256"
        },
        {
          "internalType": "address",
          "name": "_backer",
          "type": "address"
        }
      ],
      "name": "getRewardChoice",
      "outputs": [
        {
          "internalType": "bool",
          "name": "choseRewards",
          "type": "bool"
        },
        {
          "internalType": "bool",
          "name": "choseShares",
          "type": "bool"
        }
      ],
      "stateMutability": "view",
      "type": "function",
      "constant": true
    }
  ],
  "bytecode": "0x608060405234801561001057600080fd5b506040516106f63803806106f6833981810160405281019061003291906100db565b806000806101000a81548173ffffffffffffffffffffffffffffffffffffffff021916908373ffffffffffffffffffffffffffffffffffffffff16021790555050610108565b600080fd5b600073ffffffffffffffffffffffffffffffffffffffff82169050919050565b60006100a88261007d565b9050919050565b6100b88161009d565b81146100c357600080fd5b50565b6000815190506100d5816100af565b92915050565b6000602082840312156100f1576100f0610078565b5b60006100ff848285016100c6565b91505092915050565b6105df806101176000396000f3fe608060405234801561001057600080fd5b50600436106100575760003560e01c80632accd1441461005c578063633d36541461007a578063742bd6ec146100ab5780639818d410146100dc578063d9de5011146100f8575b600080fd5b610064610114565b6040516100719190610464565b60405180910390f35b610094600480360381019061008f91906104f8565b610138565b6040516100a2929190610553565b60405180910390f35b6100c560048036038101906100c091906104f8565b610183565b6040516100d3929190610553565b60405180910390f35b6100f660048036038101906100f1919061057c565b610231565b005b610112600480360381019061010d919061057c565b61030b565b005b60008054906101000a900473ffffffffffffffffffffffffffffffffffffffff1681565b6001602052816000526040600020602052806000526040600020600091509150508060000160009054906101000a900460ff16908060000160019054906101000a900460ff16905082565b60008060006001600086815260200190815260200160002060008573ffffffffffffffffffffffffffffffffffffffff1673ffffffffffffffffffffffffffffffffffffffff1681526020019081526020016000206040518060400160405290816000820160009054906101000a900460ff161515151581526020016000820160019054906101000a900460ff16151515158152505090508060000151816020015192509250509250929050565b60006001600083815260200190815260200160002060003373ffffffffffffffffffffffffffffffffffffffff1673ffffffffffffffffffffffffffffffffffffffff16815260200190815260200160002060000160006101000a81548160ff021916908315150217905550600180600083815260200190815260200160002060003373ffffffffffffffffffffffffffffffffffffffff1673ffffffffffffffffffffffffffffffffffffffff16815260200190815260200160002060000160016101000a81548160ff02191690831515021790555050565b600180600083815260200190815260200160002060003373ffffffffffffffffffffffffffffffffffffffff1673ffffffffffffffffffffffffffffffffffffffff16815260200190815260200160002060000160006101000a81548160ff02191690831515021790555060006001600083815260200190815260200160002060003373ffffffffffffffffffffffffffffffffffffffff1673ffffffffffffffffffffffffffffffffffffffff16815260200190815260200160002060000160016101000a81548160ff02191690831515021790555050565b600073ffffffffffffffffffffffffffffffffffffffff82169050919050565b6000819050919050565b600061042a610425610420846103e5565b610405565b6103e5565b9050919050565b600061043c8261040f565b9050919050565b600061044e82610431565b9050919050565b61045e81610443565b82525050565b60006020820190506104796000830184610455565b92915050565b600080fd5b6000819050919050565b61049781610484565b81146104a257600080fd5b50565b6000813590506104b48161048e565b92915050565b60006104c5826103e5565b9050919050565b6104d5816104ba565b81146104e057600080fd5b50565b6000813590506104f2816104cc565b92915050565b6000806040838503121561050f5761050e61047f565b5b600061051d858286016104a5565b925050602061052e858286016104e3565b9150509250929050565b60008115159050919050565b61054d81610538565b82525050565b60006040820190506105686000830185610544565b6105756020830184610544565b9392505050565b6000602082840312156105925761059161047f565b5b60006105a0848285016104a5565b9150509291505056fea26469706673582212206df7a873a8e01e991171c2e2315564b238f462f280c33699711c12975a1ee92164736f6c63430008130033",
  "immutableReferences": {},
  "source": "//SPDX-License-Identifier: UNLICENSED\npragma solidity >=0.6.0 < 0.9.0;\n\nimport \"./ProjectDetails.sol\";\n\ncontract BackerRewards {\n    ProjectDetails public projectDetails;\n\n    mapping(uint256 => mapping(address => RewardChoice)) public rewardChoices;\n\n    struct RewardChoice {\n        bool choseRewards;\n        bool choseShares;\n    }\n\n    constructor(address _projectDetailsAddress) {\n        projectDetails = ProjectDetails(_projectDetailsAddress);\n    }\n\n    function chooseRewards(uint256 _projectId) public {\n        // require(projectDetails.getProjectOwner(_projectId) != address(0), \"Invalid project ID\");\n        rewardChoices[_projectId][msg.sender].choseRewards = true;\n        rewardChoices[_projectId][msg.sender].choseShares = false;\n    }\n\n    function chooseShares(uint256 _projectId) public {\n        // require(projectDetails.getProjectOwner(_projectId) != address(0), \"Invalid project ID\");\n        rewardChoices[_projectId][msg.sender].choseRewards = false;\n        rewardChoices[_projectId][msg.sender].choseShares = true;\n    }\n\n    function getRewardChoice(uint256 _projectId, address _backer) public view returns (bool choseRewards, bool choseShares) {\n        RewardChoice memory choice = rewardChoices[_projectId][_backer];\n        return (choice.choseRewards, choice.choseShares);\n    }\n}\n",
  "sourcePath": "/home/mypc/Documents/mypc/Personal/B.E./uBE/Mega Project/Implementation/v 2.0/contracts/BackerRewards.sol",
  "compiler": {
    "name": "solc",
    "version": "0.8.19+commit.7dd6d404.Emscripten.clang"
  },
  "schemaVersion": "3.4.13",
  "updatedAt": "2023-06-02T19:07:54.150Z",
  "networkType": "ethereum",
  "devdoc": {
    "kind": "dev",
    "methods": {},
    "version": 1
  },
  "userdoc": {
    "kind": "user",
    "methods": {},
    "version": 1
  }
}