{
  "contractName": "funding",
  "abi": [
    {
      "inputs": [
        {
          "internalType": "address payable",
          "name": "_admin",
          "type": "address"
        },
        {
          "internalType": "address",
          "name": "_projectDetailsAddress",
          "type": "address"
        }
      ],
      "stateMutability": "nonpayable",
      "type": "constructor"
    },
    {
      "inputs": [],
      "name": "admin",
      "outputs": [
        {
          "internalType": "address payable",
          "name": "",
          "type": "address"
        }
      ],
      "stateMutability": "view",
      "type": "function",
      "constant": true
    },
    {
      "inputs": [
        {
          "internalType": "address",
          "name": "",
          "type": "address"
        }
      ],
      "name": "contributors",
      "outputs": [
        {
          "internalType": "uint256",
          "name": "",
          "type": "uint256"
        }
      ],
      "stateMutability": "view",
      "type": "function",
      "constant": true
    },
    {
      "inputs": [],
      "name": "fundingGoal",
      "outputs": [
        {
          "internalType": "uint256",
          "name": "",
          "type": "uint256"
        }
      ],
      "stateMutability": "view",
      "type": "function",
      "constant": true
    },
    {
      "inputs": [],
      "name": "goalReached",
      "outputs": [
        {
          "internalType": "bool",
          "name": "",
          "type": "bool"
        }
      ],
      "stateMutability": "view",
      "type": "function",
      "constant": true
    },
    {
      "inputs": [],
      "name": "projectOwner",
      "outputs": [
        {
          "internalType": "address payable",
          "name": "",
          "type": "address"
        }
      ],
      "stateMutability": "view",
      "type": "function",
      "constant": true
    },
    {
      "inputs": [],
      "name": "totalAmountRaised",
      "outputs": [
        {
          "internalType": "uint256",
          "name": "",
          "type": "uint256"
        }
      ],
      "stateMutability": "view",
      "type": "function",
      "constant": true
    },
    {
      "inputs": [
        {
          "internalType": "uint256",
          "name": "weiAmount",
          "type": "uint256"
        }
      ],
      "name": "weiToEther",
      "outputs": [
        {
          "internalType": "uint256",
          "name": "",
          "type": "uint256"
        }
      ],
      "stateMutability": "pure",
      "type": "function",
      "constant": true
    },
    {
      "inputs": [
        {
          "internalType": "uint256",
          "name": "_projectId",
          "type": "uint256"
        }
      ],
      "name": "contribute",
      "outputs": [],
      "stateMutability": "payable",
      "type": "function",
      "payable": true
    },
    {
      "inputs": [
        {
          "internalType": "uint256",
          "name": "_projectId",
          "type": "uint256"
        }
      ],
      "name": "getProjectName",
      "outputs": [
        {
          "internalType": "string",
          "name": "",
          "type": "string"
        }
      ],
      "stateMutability": "view",
      "type": "function",
      "constant": true
    },
    {
      "inputs": [
        {
          "internalType": "uint256",
          "name": "_projectId",
          "type": "uint256"
        }
      ],
      "name": "getProjectAmountRaised",
      "outputs": [
        {
          "internalType": "uint256",
          "name": "",
          "type": "uint256"
        }
      ],
      "stateMutability": "view",
      "type": "function",
      "constant": true
    },
    {
      "inputs": [
        {
          "internalType": "uint256",
          "name": "_projectId",
          "type": "uint256"
        }
      ],
      "name": "getToRaised",
      "outputs": [
        {
          "internalType": "uint256",
          "name": "",
          "type": "uint256"
        }
      ],
      "stateMutability": "view",
      "type": "function",
      "constant": true
    },
    {
      "inputs": [
        {
          "internalType": "uint256",
          "name": "_projectId",
          "type": "uint256"
        }
      ],
      "name": "isGoalReached",
      "outputs": [
        {
          "internalType": "bool",
          "name": "",
          "type": "bool"
        }
      ],
      "stateMutability": "view",
      "type": "function",
      "constant": true
    },
    {
      "inputs": [
        {
          "internalType": "uint256",
          "name": "_projectId",
          "type": "uint256"
        }
      ],
      "name": "setCampaignStatus",
      "outputs": [],
      "stateMutability": "view",
      "type": "function",
      "constant": true
    },
    {
      "inputs": [
        {
          "internalType": "uint256",
          "name": "_projectId",
          "type": "uint256"
        }
      ],
      "name": "withdraw",
      "outputs": [],
      "stateMutability": "payable",
      "type": "function",
      "payable": true
    },
    {
      "inputs": [],
      "name": "refund",
      "outputs": [],
      "stateMutability": "nonpayable",
      "type": "function"
    }
  ],
  "bytecode": "0x60806040523480156200001157600080fd5b506040516200194d3803806200194d83398181016040528101906200003791906200016f565b806000806101000a81548173ffffffffffffffffffffffffffffffffffffffff021916908373ffffffffffffffffffffffffffffffffffffffff16021790555081600560016101000a81548173ffffffffffffffffffffffffffffffffffffffff021916908373ffffffffffffffffffffffffffffffffffffffff1602179055505050620001b6565b600080fd5b600073ffffffffffffffffffffffffffffffffffffffff82169050919050565b6000620000f282620000c5565b9050919050565b6200010481620000e5565b81146200011057600080fd5b50565b6000815190506200012481620000f9565b92915050565b60006200013782620000c5565b9050919050565b62000149816200012a565b81146200015557600080fd5b50565b60008151905062000169816200013e565b92915050565b60008060408385031215620001895762000188620000c0565b5b6000620001998582860162000113565b9250506020620001ac8582860162000158565b9150509250929050565b61178780620001c66000396000f3fe6080604052600436106100e85760003560e01c80637a3a0e841161008a578063d0eff89111610059578063d0eff891146102c8578063f19603aa14610305578063f1fa906c14610342578063f851a4401461037f576100e8565b80637a3a0e841461022b5780637d3d652214610256578063a4475ce414610281578063c1cbbca7146102ac576100e8565b80632e1a7d4d116100c65780632e1a7d4d1461017e57806332535f381461019a578063520ac64e146101d7578063590e1ae314610214576100e8565b806314b2086c146100ed5780631f6d494214610116578063242d7dba14610153575b600080fd5b3480156100f957600080fd5b50610114600480360381019061010f9190610de2565b6103aa565b005b34801561012257600080fd5b5061013d60048036038101906101389190610e6d565b61045d565b60405161014a9190610ea9565b60405180910390f35b34801561015f57600080fd5b50610168610475565b6040516101759190610ea9565b60405180910390f35b61019860048036038101906101939190610de2565b61047b565b005b3480156101a657600080fd5b506101c160048036038101906101bc9190610de2565b61065a565b6040516101ce9190610ea9565b60405180910390f35b3480156101e357600080fd5b506101fe60048036038101906101f99190610de2565b610707565b60405161020b9190610ea9565b60405180910390f35b34801561022057600080fd5b506102296107b4565b005b34801561023757600080fd5b50610240610922565b60405161024d9190610ea9565b60405180910390f35b34801561026257600080fd5b5061026b610928565b6040516102789190610edf565b60405180910390f35b34801561028d57600080fd5b5061029661093b565b6040516102a39190610f1b565b60405180910390f35b6102c660048036038101906102c19190610de2565b610961565b005b3480156102d457600080fd5b506102ef60048036038101906102ea9190610de2565b610bfb565b6040516102fc9190610ea9565b60405180910390f35b34801561031157600080fd5b5061032c60048036038101906103279190610de2565b610c18565b6040516103399190610edf565b60405180910390f35b34801561034e57600080fd5b5061036960048036038101906103649190610de2565b610cc6565b6040516103769190610fc6565b60405180910390f35b34801561038b57600080fd5b50610394610d72565b6040516103a19190610f1b565b60405180910390f35b600160008054906101000a900473ffffffffffffffffffffffffffffffffffffffff1673ffffffffffffffffffffffffffffffffffffffff1663f0f3f2c8836040518263ffffffff1660e01b81526004016104059190610ea9565b600060405180830381865afa158015610422573d6000803e3d6000fd5b505050506040513d6000823e3d601f19601f8201168201806040525081019061044b91906113c7565b61010001901515908115158152505050565b60046020528060005260406000206000915090505481565b60035481565b600560019054906101000a900473ffffffffffffffffffffffffffffffffffffffff1673ffffffffffffffffffffffffffffffffffffffff163373ffffffffffffffffffffffffffffffffffffffff161461050b576040517f08c379a00000000000000000000000000000000000000000000000000000000081526004016105029061145c565b60405180910390fd5b60008054906101000a900473ffffffffffffffffffffffffffffffffffffffff1673ffffffffffffffffffffffffffffffffffffffff166392256aec826040518263ffffffff1660e01b81526004016105649190610ea9565b602060405180830381865afa158015610581573d6000803e3d6000fd5b505050506040513d601f19601f820116820180604052508101906105a591906114a8565b600160006101000a81548173ffffffffffffffffffffffffffffffffffffffff021916908373ffffffffffffffffffffffffffffffffffffffff160217905550600160009054906101000a900473ffffffffffffffffffffffffffffffffffffffff1673ffffffffffffffffffffffffffffffffffffffff166108fc479081150290604051600060405180830381858888f1935050505015801561064d573d6000803e3d6000fd5b50610657816103aa565b50565b60008060009054906101000a900473ffffffffffffffffffffffffffffffffffffffff1673ffffffffffffffffffffffffffffffffffffffff1663f0f3f2c8836040518263ffffffff1660e01b81526004016106b69190610ea9565b600060405180830381865afa1580156106d3573d6000803e3d6000fd5b505050506040513d6000823e3d601f19601f820116820180604052508101906106fc91906113c7565b608001519050919050565b60008060009054906101000a900473ffffffffffffffffffffffffffffffffffffffff1673ffffffffffffffffffffffffffffffffffffffff1663f0f3f2c8836040518263ffffffff1660e01b81526004016107639190610ea9565b600060405180830381865afa158015610780573d6000803e3d6000fd5b505050506040513d6000823e3d601f19601f820116820180604052508101906107a991906113c7565b60a001519050919050565b6000600460003373ffffffffffffffffffffffffffffffffffffffff1673ffffffffffffffffffffffffffffffffffffffff1681526020019081526020016000205411610836576040517f08c379a000000000000000000000000000000000000000000000000000000000815260040161082d90611547565b60405180910390fd5b6000600460003373ffffffffffffffffffffffffffffffffffffffff1673ffffffffffffffffffffffffffffffffffffffff1681526020019081526020016000205490506000600460003373ffffffffffffffffffffffffffffffffffffffff1673ffffffffffffffffffffffffffffffffffffffff1681526020019081526020016000208190555080600360008282546108d19190611596565b925050819055503373ffffffffffffffffffffffffffffffffffffffff166108fc829081150290604051600060405180830381858888f1935050505015801561091e573d6000803e3d6000fd5b5050565b60025481565b600560009054906101000a900460ff1681565b600160009054906101000a900473ffffffffffffffffffffffffffffffffffffffff1681565b600034116109a4576040517f08c379a000000000000000000000000000000000000000000000000000000000815260040161099b9061163c565b60405180910390fd5b6109ad81610c18565b156109ed576040517f08c379a00000000000000000000000000000000000000000000000000000000081526004016109e4906116a8565b60405180910390fd5b60006109f882610707565b610a018361065a565b610a0b9190611596565b90506000610a1834610bfb565b905081811115610a26578190505b60008054906101000a900473ffffffffffffffffffffffffffffffffffffffff1673ffffffffffffffffffffffffffffffffffffffff16638563308784836040518363ffffffff1660e01b8152600401610a819291906116c8565b600060405180830381600087803b158015610a9b57600080fd5b505af1158015610aaf573d6000803e3d6000fd5b50505050610abc8361065a565b600281905550610acb83610707565b60038190555060025460035410610b8d57600160008054906101000a900473ffffffffffffffffffffffffffffffffffffffff1673ffffffffffffffffffffffffffffffffffffffff1663f0f3f2c8856040518263ffffffff1660e01b8152600401610b379190610ea9565b600060405180830381865afa158015610b54573d6000803e3d6000fd5b505050506040513d6000823e3d601f19601f82011682018060405250810190610b7d91906113c7565b6101000190151590811515815250505b600560019054906101000a900473ffffffffffffffffffffffffffffffffffffffff1673ffffffffffffffffffffffffffffffffffffffff166108fc829081150290604051600060405180830381858888f19350505050158015610bf5573d6000803e3d6000fd5b50505050565b6000670de0b6b3a764000082610c119190611720565b9050919050565b60008060009054906101000a900473ffffffffffffffffffffffffffffffffffffffff1673ffffffffffffffffffffffffffffffffffffffff1663f0f3f2c8836040518263ffffffff1660e01b8152600401610c749190610ea9565b600060405180830381865afa158015610c91573d6000803e3d6000fd5b505050506040513d6000823e3d601f19601f82011682018060405250810190610cba91906113c7565b61010001519050919050565b606060008054906101000a900473ffffffffffffffffffffffffffffffffffffffff1673ffffffffffffffffffffffffffffffffffffffff1663f0f3f2c8836040518263ffffffff1660e01b8152600401610d219190610ea9565b600060405180830381865afa158015610d3e573d6000803e3d6000fd5b505050506040513d6000823e3d601f19601f82011682018060405250810190610d6791906113c7565b600001519050919050565b600560019054906101000a900473ffffffffffffffffffffffffffffffffffffffff1681565b6000604051905090565b600080fd5b600080fd5b6000819050919050565b610dbf81610dac565b8114610dca57600080fd5b50565b600081359050610ddc81610db6565b92915050565b600060208284031215610df857610df7610da2565b5b6000610e0684828501610dcd565b91505092915050565b600073ffffffffffffffffffffffffffffffffffffffff82169050919050565b6000610e3a82610e0f565b9050919050565b610e4a81610e2f565b8114610e5557600080fd5b50565b600081359050610e6781610e41565b92915050565b600060208284031215610e8357610e82610da2565b5b6000610e9184828501610e58565b91505092915050565b610ea381610dac565b82525050565b6000602082019050610ebe6000830184610e9a565b92915050565b60008115159050919050565b610ed981610ec4565b82525050565b6000602082019050610ef46000830184610ed0565b92915050565b6000610f0582610e0f565b9050919050565b610f1581610efa565b82525050565b6000602082019050610f306000830184610f0c565b92915050565b600081519050919050565b600082825260208201905092915050565b60005b83811015610f70578082015181840152602081019050610f55565b60008484015250505050565b6000601f19601f8301169050919050565b6000610f9882610f36565b610fa28185610f41565b9350610fb2818560208601610f52565b610fbb81610f7c565b840191505092915050565b60006020820190508181036000830152610fe08184610f8d565b905092915050565b600080fd5b7f4e487b7100000000000000000000000000000000000000000000000000000000600052604160045260246000fd5b61102582610f7c565b810181811067ffffffffffffffff8211171561104457611043610fed565b5b80604052505050565b6000611057610d98565b9050611063828261101c565b919050565b600080fd5b600080fd5b600080fd5b600067ffffffffffffffff82111561109257611091610fed565b5b61109b82610f7c565b9050602081019050919050565b60006110bb6110b684611077565b61104d565b9050828152602081018484840111156110d7576110d6611072565b5b6110e2848285610f52565b509392505050565b600082601f8301126110ff576110fe61106d565b5b815161110f8482602086016110a8565b91505092915050565b60008151905061112781610db6565b92915050565b600067ffffffffffffffff82111561114857611147610fed565b5b602082029050602081019050919050565b600080fd5b600061117161116c8461112d565b61104d565b9050808382526020820190506020840283018581111561119457611193611159565b5b835b818110156111db57805167ffffffffffffffff8111156111b9576111b861106d565b5b8086016111c689826110ea565b85526020850194505050602081019050611196565b5050509392505050565b600082601f8301126111fa576111f961106d565b5b815161120a84826020860161115e565b91505092915050565b61121c81610ec4565b811461122757600080fd5b50565b60008151905061123981611213565b92915050565b6000610120828403121561125657611255610fe8565b5b61126161012061104d565b9050600082015167ffffffffffffffff81111561128157611280611068565b5b61128d848285016110ea565b600083015250602082015167ffffffffffffffff8111156112b1576112b0611068565b5b6112bd848285016110ea565b602083015250604082015167ffffffffffffffff8111156112e1576112e0611068565b5b6112ed848285016110ea565b604083015250606082015167ffffffffffffffff81111561131157611310611068565b5b61131d848285016110ea565b606083015250608061133184828501611118565b60808301525060a061134584828501611118565b60a08301525060c082015167ffffffffffffffff81111561136957611368611068565b5b611375848285016111e5565b60c08301525060e082015167ffffffffffffffff81111561139957611398611068565b5b6113a5848285016110ea565b60e0830152506101006113ba8482850161122a565b6101008301525092915050565b6000602082840312156113dd576113dc610da2565b5b600082015167ffffffffffffffff8111156113fb576113fa610da7565b5b6114078482850161123f565b91505092915050565b7f4f6e6c792061646d696e2063616e2077697468647261772066756e6473000000600082015250565b6000611446601d83610f41565b915061145182611410565b602082019050919050565b6000602082019050818103600083015261147581611439565b9050919050565b61148581610efa565b811461149057600080fd5b50565b6000815190506114a28161147c565b92915050565b6000602082840312156114be576114bd610da2565b5b60006114cc84828501611493565b91505092915050565b7f4e6f20636f6e747269627574696f6e20666f756e6420666f722074686973206160008201527f6464726573730000000000000000000000000000000000000000000000000000602082015250565b6000611531602683610f41565b915061153c826114d5565b604082019050919050565b6000602082019050818103600083015261156081611524565b9050919050565b7f4e487b7100000000000000000000000000000000000000000000000000000000600052601160045260246000fd5b60006115a182610dac565b91506115ac83610dac565b92508282039050818111156115c4576115c3611567565b5b92915050565b7f436f6e747269627574696f6e20616d6f756e74206d757374206265206772656160008201527f746572207468616e203000000000000000000000000000000000000000000000602082015250565b6000611626602a83610f41565b9150611631826115ca565b604082019050919050565b6000602082019050818103600083015261165581611619565b9050919050565b7f46756e64696e6720676f616c20616c7265616479207265616368656400000000600082015250565b6000611692601c83610f41565b915061169d8261165c565b602082019050919050565b600060208201905081810360008301526116c181611685565b9050919050565b60006040820190506116dd6000830185610e9a565b6116ea6020830184610e9a565b9392505050565b7f4e487b7100000000000000000000000000000000000000000000000000000000600052601260045260246000fd5b600061172b82610dac565b915061173683610dac565b925082611746576117456116f1565b5b82820490509291505056fea264697066735822122038dbbeade2f78fa49777b638522a4ed5a79a80c4e20d2a87a990c16711fcf1fe64736f6c63430008130033",
  "immutableReferences": {},
  "source": "//SPDX-License-Identifier: UNLICENSED\npragma solidity >=0.6.0 < 0.9.0;\n\n//---------------------------------CONTRACT #1-------------------------------------//\n// contract funding{\n//     mapping(address=>uint) public contributors; //contributors[msg.sender]=100\n//     address public manager; \n//     uint public minimumContribution;\n//     uint public deadline;\n//     uint public target;\n//     uint public raisedAmount;\n//     uint public noOfContributors;\n    \n//     struct Request{\n//         string description;\n//         address payable recipient;\n//         uint value;\n//         bool completed;\n//         uint noOfVoters;\n//         mapping(address=>bool) voters;\n//     }\n\n//     mapping(uint=>Request) public requests;\n//     uint public numRequests;\n\n//     constructor (uint _target,uint _deadline){\n//         target=_target;\n//         deadline=block.timestamp+_deadline; //10sec + 3600sec (60*60)\n//         minimumContribution=100 wei;\n//         manager=msg.sender;\n//     }\n    \n// // Donor functions\n// // 1. Donate Money\n//     function sendEth() public payable{\n//         require(block.timestamp < deadline,\"Deadline has passed\");\n//         require(msg.value >=minimumContribution,\"Minimum Contribution is not met\");\n        \n//         if(contributors[msg.sender]==0){\n//             noOfContributors++;\n//         }\n//         contributors[msg.sender]+=msg.value;\n//         raisedAmount+=msg.value;\n//     }\n//     function getContractBalance() public view returns(uint){\n//         return address(this).balance;\n//     }\n\n// // 2. Request refund\n//     function refund() public payable{\n//         // require(block.timestamp>deadline && raisedAmount<target,\"You are not eligible for refund\");\n//         require(contributors[msg.sender]>0);\n//         address payable user= payable(msg.sender);\n//         user.transfer(contributors[msg.sender]);\n//         raisedAmount -= contributors[msg.sender];\n//         noOfContributors--;\n//         contributors[msg.sender]=0;\n        \n//     }\n\n// // 3. To get votes from existing contributors to allocate the new project\n//     function voteRequest(uint _requestNo) public{\n//         require(contributors[msg.sender]>0,\"You must be contributor\");\n//         Request storage thisRequest=requests[_requestNo];\n//         require(thisRequest.voters[msg.sender]==false,\"You have already voted\");\n//         thisRequest.voters[msg.sender]=true;\n//         thisRequest.noOfVoters++;\n//     }\n\n// // modifier to check if the function is accessed by the manager(as some functions cannot be accessed by anybody else)\n//     modifier onlyManager(){\n//         require(msg.sender == manager,\"Only manager can call this function\");\n//         _;\n//     }\n\n// // Manager(Admin) Functions\n// // 1. To create new Project allocations\n//     function createRequests(string memory _description,address payable _recipient,uint _value)public onlyManager{\n//         Request storage newRequest = requests[numRequests];\n//         numRequests++;\n//         newRequest.description=_description;\n//         newRequest.recipient=_recipient;\n//         newRequest.value=_value;\n//         newRequest.completed=false;\n//         newRequest.noOfVoters=0;\n//     }\n\n\n// }\n\n\n//---------------------------------CONTRACT #2-------------------------------------//\n// contract funding {\n    \n//     // Project struct to store project details\n//     struct Project {\n//         address owner;\n//         string title;\n//         string description;\n//         uint goal;\n//         uint raised;\n//         bool completed;\n//         mapping(address => uint) contributions;\n//     }\n    \n//     // Array of projects\n//     Project[] public projects;\n    \n//     // Event emitted when a new project is created\n//     // event ProjectCreated(uint projectId, address owner, string title, string description, uint goal);\n    \n//     // Event emitted when a project is funded\n//     event ProjectFunded(uint projectId, address funder, uint amount);\n    \n    \n//     // Function to fund a project\n//     function fundProject(uint _projectId) public payable {\n//         Project storage project = projects[_projectId];\n//         require(msg.value > 0, \"Amount should be greater than 0\");\n//         require(!project.completed, \"Project is already completed\");\n//         require(project.raised < project.goal, \"Project goal is already reached\");\n//         project.contributions[msg.sender] += msg.value;\n//         project.raised += msg.value;\n//         emit ProjectFunded(_projectId, msg.sender, msg.value);\n//     }\n    \n//     // Function to check the contribution of a funder for a project\n//     function checkContribution(uint _projectId) public view returns(uint) {\n//         return projects[_projectId].contributions[msg.sender];\n//     }\n    \n//     // Function to check the status of a project\n//     function checkProjectStatus(uint _projectId) public view returns(bool) {\n//         return projects[_projectId].completed;\n//     }\n    \n//     // Function to complete a project and transfer funds to owner\n//     function completeProject(uint _projectId) public {\n//         Project storage project = projects[_projectId];\n//         require(!project.completed, \"Project is already completed\");\n//         require(project.raised >= project.goal, \"Project goal is not reached\");\n//         project.completed = true;\n//         payable(project.owner).transfer(project.raised);\n//     }\n// }\n\n\n\n//---------------------------------CONTRACT #3-------------------------------------//\n// import \"./ProjectDetails.sol\";\n\n// contract funding {\n\n//     // Project Contract\n//     ProjectDetails projectDetails;\n\n//     address payable public projectOwner;\n//     uint public fundingGoal;\n//     uint public totalAmountRaised;\n//     mapping(address => uint) public contributors;\n//     bool public goalReached;\n\n//     address public admin;\n\n//     // constructor(address payable _projectOwner, uint _fundingGoal, address _admin) {\n//     //     projectOwner = _projectOwner;\n//     //     fundingGoal = _fundingGoal;\n//     //     admin = _admin;\n//     // }\n\n//     constructor() {\n//         projectDetails = ProjectDetails(0x00Ec53B0d9D1725C90D0b740c7ABA9cb277a23dc);\n//         // admin = _admin;\n//     }\n\n\n//     function contribute(uint256 _projectId) public payable {\n//         require(msg.value > 0, \"Contribution amount must be greater than 0\");\n//         require(msg.value < projectDetails.getProject(_projectId).amountToRaise, \"Funding goal already reached\");\n//         projectDetails.getProject(_projectId).amountRaised += msg.value;\n//         contributors[msg.sender] += msg.value;\n//         totalAmountRaised += msg.value;\n//         payable(projectDetails.getProjectOwner(_projectId)).transfer(msg.value);\n//     }\n\n//     function withdraw() public {\n//         require(goalReached, \"Funding goal not reached\");\n//         require(msg.sender == projectOwner, \"Only project owner can withdraw funds\");\n//         payable(msg.sender).transfer(address(this).balance);\n//     }\n\n//     function checkGoalReached() public {\n//         if (totalAmountRaised >= fundingGoal) {\n//             goalReached = true;\n//         }\n//     }\n\n//     function refund() public {\n//         require(contributors[msg.sender] > 0, \"No contribution found for this address\");\n//         uint amount = contributors[msg.sender];\n//         contributors[msg.sender] = 0;\n//         totalAmountRaised -= amount;\n//         payable(msg.sender).transfer(amount);\n//     }\n// }\n\n\n//---------------------------------CONTRACT #4-------------------------------------//\nimport \"./ProjectDetails.sol\";\n\ncontract funding {\n\n    // Project Contract\n    ProjectDetails projectDetails;\n\n    address payable public projectOwner;\n    uint public fundingGoal;\n    uint public totalAmountRaised;\n    mapping(address => uint) public contributors;\n    bool public goalReached;\n\n    address payable public admin;\n\n    constructor(address payable _admin, address _projectDetailsAddress) {\n        projectDetails = ProjectDetails(_projectDetailsAddress);\n        admin = _admin;\n    }\n\n    function weiToEther(uint256 weiAmount) public pure returns (uint256) {\n        return weiAmount / 1 ether;\n    }\n\n\n\n    function contribute(uint256 _projectId) public payable {\n        require(msg.value > 0, \"Contribution amount must be greater than 0\");\n        require(!isGoalReached(_projectId), \"Funding goal already reached\");\n\n        uint256 remainingAmount = getToRaised(_projectId) - getProjectAmountRaised(_projectId);\n        uint256 etherAmount = weiToEther(msg.value);\n\n        // CHANGES        \n        if (etherAmount > remainingAmount) {\n            etherAmount = remainingAmount;\n        }                        \n        // if (etherAmount >= remainingAmount) {\n        //     // Adjust the contribution amount to the remaining amount required to reach the funding goal\n        //     payable(projectDetails.getProjectOwner(_projectId)).transfer(etherAmount - remainingAmount);\n        //     projectDetails.addAmountRaised(_projectId, remainingAmount);\n        // } else {\n        //     projectDetails.addAmountRaised(_projectId, etherAmount);\n        //     payable(projectDetails.getProjectOwner(_projectId)).transfer(etherAmount);\n        // }\n\n        projectDetails.addAmountRaised(_projectId, etherAmount);\n        fundingGoal = getToRaised(_projectId);\n        totalAmountRaised = getProjectAmountRaised(_projectId);\n        if(totalAmountRaised >= fundingGoal){\n            projectDetails.getProject(_projectId).goalReached = true;\n        }\n\n        admin.transfer(etherAmount);\n        \n        \n    }\n\n    // remix\n    function getProjectName(uint256 _projectId) public view returns (string memory) {\n        return projectDetails.getProject(_projectId).title;\n    }\n\n    // remix\n    function getProjectAmountRaised(uint256 _projectId) public view returns (uint256) {\n        return projectDetails.getProject(_projectId).amountRaised;\n    }\n\n    function getToRaised(uint256 _projectId) public view returns (uint256) {\n        return projectDetails.getProject(_projectId).amountToRaise;\n    }\n\n    function isGoalReached(uint256 _projectId) public view returns (bool) {\n        return projectDetails.getProject(_projectId).goalReached;\n    }\n\n    function setCampaignStatus(uint256 _projectId) public view{\n        projectDetails.getProject(_projectId).goalReached = true;\n    }\n\n    function withdraw(uint256 _projectId) public payable{\n        // require(isGoalReached(_projectId), \"Funding goal not reached\");\n        require(msg.sender == admin, \"Only admin can withdraw funds\");\n        // add all the required require conditions\n\n        projectOwner = projectDetails.getProjectOwner(_projectId);\n    \n        projectOwner.transfer(address(this).balance);\n        \n        setCampaignStatus(_projectId);\n    }\n\n    // function checkGoalReached() public {\n    //     if (totalAmountRaised >= fundingGoal) {\n    //         goalReached = true;\n    //     }\n    // }\n\n    function refund() public {\n        require(contributors[msg.sender] > 0, \"No contribution found for this address\");\n        uint amount = contributors[msg.sender];\n        contributors[msg.sender] = 0;\n        totalAmountRaised -= amount;\n        payable(msg.sender).transfer(amount);\n    }\n}\n\n",
  "sourcePath": "/home/mypc/Documents/mypc/Personal/B.E./uBE/Mega Project/Implementation/v 2.0/contracts/funding.sol",
  "compiler": {
    "name": "solc",
    "version": "0.8.19+commit.7dd6d404.Emscripten.clang"
  },
  "schemaVersion": "3.4.13",
  "updatedAt": "2023-06-02T19:07:53.729Z",
  "networkType": "ethereum",
  "devdoc": {
    "kind": "dev",
    "methods": {},
    "version": 1
  },
  "userdoc": {
    "kind": "user",
    "methods": {},
    "version": 1
  }
}