{
  "contractName": "ProjectDetails",
  "abi": [
    {
      "inputs": [
        {
          "internalType": "address",
          "name": "_admin",
          "type": "address"
        }
      ],
      "stateMutability": "nonpayable",
      "type": "constructor"
    },
    {
      "inputs": [],
      "name": "admin",
      "outputs": [
        {
          "internalType": "address",
          "name": "",
          "type": "address"
        }
      ],
      "stateMutability": "view",
      "type": "function",
      "constant": true
    },
    {
      "inputs": [
        {
          "internalType": "string",
          "name": "_title",
          "type": "string"
        },
        {
          "internalType": "string",
          "name": "_description",
          "type": "string"
        },
        {
          "internalType": "string",
          "name": "_startDate",
          "type": "string"
        },
        {
          "internalType": "string",
          "name": "_endDate",
          "type": "string"
        },
        {
          "internalType": "uint256",
          "name": "_amountToRaise",
          "type": "uint256"
        }
      ],
      "name": "createProject",
      "outputs": [],
      "stateMutability": "nonpayable",
      "type": "function"
    },
    {
      "inputs": [
        {
          "internalType": "uint256",
          "name": "_projectId",
          "type": "uint256"
        },
        {
          "internalType": "string[]",
          "name": "_milestones",
          "type": "string[]"
        }
      ],
      "name": "setMilestones",
      "outputs": [],
      "stateMutability": "nonpayable",
      "type": "function"
    },
    {
      "inputs": [
        {
          "internalType": "uint256",
          "name": "_projectId",
          "type": "uint256"
        },
        {
          "internalType": "uint256",
          "name": "_amountRaised",
          "type": "uint256"
        }
      ],
      "name": "addAmountRaised",
      "outputs": [],
      "stateMutability": "nonpayable",
      "type": "function"
    },
    {
      "inputs": [
        {
          "internalType": "uint256",
          "name": "_projectId",
          "type": "uint256"
        }
      ],
      "name": "getProjectOwner",
      "outputs": [
        {
          "internalType": "address payable",
          "name": "",
          "type": "address"
        }
      ],
      "stateMutability": "view",
      "type": "function",
      "constant": true
    },
    {
      "inputs": [],
      "name": "getCurrentProjectId",
      "outputs": [
        {
          "internalType": "uint256[]",
          "name": "",
          "type": "uint256[]"
        }
      ],
      "stateMutability": "view",
      "type": "function",
      "constant": true
    },
    {
      "inputs": [
        {
          "internalType": "uint256",
          "name": "_projectId",
          "type": "uint256"
        }
      ],
      "name": "approveProject",
      "outputs": [],
      "stateMutability": "nonpayable",
      "type": "function"
    },
    {
      "inputs": [
        {
          "internalType": "uint256",
          "name": "_projectId",
          "type": "uint256"
        }
      ],
      "name": "rejectProject",
      "outputs": [],
      "stateMutability": "nonpayable",
      "type": "function"
    },
    {
      "inputs": [
        {
          "internalType": "uint256",
          "name": "_index",
          "type": "uint256"
        }
      ],
      "name": "abortProject",
      "outputs": [],
      "stateMutability": "nonpayable",
      "type": "function"
    },
    {
      "inputs": [
        {
          "internalType": "uint256",
          "name": "_projectId",
          "type": "uint256"
        }
      ],
      "name": "isProjectApproved",
      "outputs": [
        {
          "internalType": "string",
          "name": "",
          "type": "string"
        }
      ],
      "stateMutability": "view",
      "type": "function",
      "constant": true
    },
    {
      "inputs": [
        {
          "internalType": "uint256",
          "name": "projectId",
          "type": "uint256"
        }
      ],
      "name": "getProject",
      "outputs": [
        {
          "components": [
            {
              "internalType": "string",
              "name": "title",
              "type": "string"
            },
            {
              "internalType": "string",
              "name": "description",
              "type": "string"
            },
            {
              "internalType": "string",
              "name": "startDate",
              "type": "string"
            },
            {
              "internalType": "string",
              "name": "endDate",
              "type": "string"
            },
            {
              "internalType": "uint256",
              "name": "amountToRaise",
              "type": "uint256"
            },
            {
              "internalType": "uint256",
              "name": "amountRaised",
              "type": "uint256"
            },
            {
              "internalType": "string[]",
              "name": "milestones",
              "type": "string[]"
            },
            {
              "internalType": "string",
              "name": "approved",
              "type": "string"
            },
            {
              "internalType": "bool",
              "name": "goalReached",
              "type": "bool"
            }
          ],
          "internalType": "struct ProjectDetails.Project",
          "name": "",
          "type": "tuple"
        }
      ],
      "stateMutability": "view",
      "type": "function",
      "constant": true
    },
    {
      "inputs": [],
      "name": "getProjectDetails",
      "outputs": [
        {
          "components": [
            {
              "internalType": "string",
              "name": "title",
              "type": "string"
            },
            {
              "internalType": "string",
              "name": "description",
              "type": "string"
            },
            {
              "internalType": "string",
              "name": "startDate",
              "type": "string"
            },
            {
              "internalType": "string",
              "name": "endDate",
              "type": "string"
            },
            {
              "internalType": "uint256",
              "name": "amountToRaise",
              "type": "uint256"
            },
            {
              "internalType": "uint256",
              "name": "amountRaised",
              "type": "uint256"
            },
            {
              "internalType": "string[]",
              "name": "milestones",
              "type": "string[]"
            },
            {
              "internalType": "string",
              "name": "approved",
              "type": "string"
            },
            {
              "internalType": "bool",
              "name": "goalReached",
              "type": "bool"
            }
          ],
          "internalType": "struct ProjectDetails.Project[]",
          "name": "",
          "type": "tuple[]"
        }
      ],
      "stateMutability": "view",
      "type": "function",
      "constant": true
    },
    {
      "inputs": [],
      "name": "getAllProjects",
      "outputs": [
        {
          "components": [
            {
              "internalType": "string",
              "name": "title",
              "type": "string"
            },
            {
              "internalType": "string",
              "name": "description",
              "type": "string"
            },
            {
              "internalType": "string",
              "name": "startDate",
              "type": "string"
            },
            {
              "internalType": "string",
              "name": "endDate",
              "type": "string"
            },
            {
              "internalType": "uint256",
              "name": "amountToRaise",
              "type": "uint256"
            },
            {
              "internalType": "uint256",
              "name": "amountRaised",
              "type": "uint256"
            },
            {
              "internalType": "string[]",
              "name": "milestones",
              "type": "string[]"
            },
            {
              "internalType": "string",
              "name": "approved",
              "type": "string"
            },
            {
              "internalType": "bool",
              "name": "goalReached",
              "type": "bool"
            }
          ],
          "internalType": "struct ProjectDetails.Project[]",
          "name": "",
          "type": "tuple[]"
        }
      ],
      "stateMutability": "view",
      "type": "function",
      "constant": true
    }
  ],
  "bytecode": "0x60806040523480156200001157600080fd5b5060405162002c3438038062002c348339818101604052810190620000379190620000e8565b806000806101000a81548173ffffffffffffffffffffffffffffffffffffffff021916908373ffffffffffffffffffffffffffffffffffffffff160217905550506200011a565b600080fd5b600073ffffffffffffffffffffffffffffffffffffffff82169050919050565b6000620000b08262000083565b9050919050565b620000c281620000a3565b8114620000ce57600080fd5b50565b600081519050620000e281620000b7565b92915050565b6000602082840312156200010157620001006200007e565b5b60006200011184828501620000d1565b91505092915050565b612b0a806200012a6000396000f3fe608060405234801561001057600080fd5b50600436106100cf5760003560e01c8063a3bfb7bd1161008c578063f0f3f2c811610066578063f0f3f2c8146101fc578063f851a4401461022c578063fc69d8361461024a578063ff3a9c7e14610266576100cf565b8063a3bfb7bd146101a6578063a78c389a146101c2578063c868ba9a146101de576100cf565b8063083b9bf9146100d457806369b04f19146100f05780636c88163f1461010c57806380d038291461013c578063856330871461015a57806392256aec14610176575b600080fd5b6100ee60048036038101906100e99190611d56565b610284565b005b61010a60048036038101906101059190611db2565b610363565b005b61012660048036038101906101219190611db2565b61045c565b6040516101339190611e5e565b60405180910390f35b610144610513565b6040516101519190612160565b60405180910390f35b610174600480360381019061016f9190612182565b610955565b005b610190600480360381019061018b9190611db2565b610995565b60405161019d9190612203565b60405180910390f35b6101c060048036038101906101bb9190611db2565b6109d2565b005b6101dc60048036038101906101d7919061221e565b610b9e565b005b6101e6610e1c565b6040516101f391906123b8565b60405180910390f35b61021660048036038101906102119190611db2565b610eb1565b60405161022391906124c2565b60405180910390f35b610234611317565b6040516102419190612505565b60405180910390f35b610264600480360381019061025f9190611db2565b61133b565b005b61026e611434565b60405161027b9190612160565b60405180910390f35b3373ffffffffffffffffffffffffffffffffffffffff166001600084815260200190815260200160002060009054906101000a900473ffffffffffffffffffffffffffffffffffffffff1673ffffffffffffffffffffffffffffffffffffffff1614610325576040517f08c379a000000000000000000000000000000000000000000000000000000000815260040161031c90612592565b60405180910390fd5b806003838154811061033a576103396125b2565b5b9060005260206000209060090201600601908051906020019061035e929190611997565b505050565b60008054906101000a900473ffffffffffffffffffffffffffffffffffffffff1673ffffffffffffffffffffffffffffffffffffffff163373ffffffffffffffffffffffffffffffffffffffff16146103f1576040517f08c379a00000000000000000000000000000000000000000000000000000000081526004016103e89061262d565b60405180910390fd5b6040518060400160405280600581526020017f66616c73650000000000000000000000000000000000000000000000000000008152506003828154811061043b5761043a6125b2565b5b906000526020600020906009020160070190816104589190612859565b5050565b606060038281548110610472576104716125b2565b5b9060005260206000209060090201600701805461048e9061267c565b80601f01602080910402602001604051908101604052809291908181526020018280546104ba9061267c565b80156105075780601f106104dc57610100808354040283529160200191610507565b820191906000526020600020905b8154815290600101906020018083116104ea57829003601f168201915b50505050509050919050565b60606003805480602002602001604051908101604052809291908181526020016000905b8282101561094c57838290600052602060002090600902016040518061012001604052908160008201805461056b9061267c565b80601f01602080910402602001604051908101604052809291908181526020018280546105979061267c565b80156105e45780601f106105b9576101008083540402835291602001916105e4565b820191906000526020600020905b8154815290600101906020018083116105c757829003601f168201915b505050505081526020016001820180546105fd9061267c565b80601f01602080910402602001604051908101604052809291908181526020018280546106299061267c565b80156106765780601f1061064b57610100808354040283529160200191610676565b820191906000526020600020905b81548152906001019060200180831161065957829003601f168201915b5050505050815260200160028201805461068f9061267c565b80601f01602080910402602001604051908101604052809291908181526020018280546106bb9061267c565b80156107085780601f106106dd57610100808354040283529160200191610708565b820191906000526020600020905b8154815290600101906020018083116106eb57829003601f168201915b505050505081526020016003820180546107219061267c565b80601f016020809104026020016040519081016040528092919081815260200182805461074d9061267c565b801561079a5780601f1061076f5761010080835404028352916020019161079a565b820191906000526020600020905b81548152906001019060200180831161077d57829003601f168201915b50505050508152602001600482015481526020016005820154815260200160068201805480602002602001604051908101604052809291908181526020016000905b828210156108885783829060005260206000200180546107fb9061267c565b80601f01602080910402602001604051908101604052809291908181526020018280546108279061267c565b80156108745780601f1061084957610100808354040283529160200191610874565b820191906000526020600020905b81548152906001019060200180831161085757829003601f168201915b5050505050815260200190600101906107dc565b5050505081526020016007820180546108a09061267c565b80601f01602080910402602001604051908101604052809291908181526020018280546108cc9061267c565b80156109195780601f106108ee57610100808354040283529160200191610919565b820191906000526020600020905b8154815290600101906020018083116108fc57829003601f168201915b505050505081526020016008820160009054906101000a900460ff16151515158152505081526020019060010190610537565b50505050905090565b806003838154811061096a576109696125b2565b5b9060005260206000209060090201600501600082825461098a919061295a565b925050819055505050565b60006001600083815260200190815260200160002060009054906101000a900473ffffffffffffffffffffffffffffffffffffffff169050919050565b3373ffffffffffffffffffffffffffffffffffffffff166001600083815260200190815260200160002060009054906101000a900473ffffffffffffffffffffffffffffffffffffffff1673ffffffffffffffffffffffffffffffffffffffff1614610a73576040517f08c379a0000000000000000000000000000000000000000000000000000000008152600401610a6a90612a00565b60405180910390fd5b600060038281548110610a8957610a886125b2565b5b9060005260206000209060090201905060038281548110610aad57610aac6125b2565b5b906000526020600020906009020160008082016000610acc91906119f0565b600182016000610adc91906119f0565b600282016000610aec91906119f0565b600382016000610afc91906119f0565b60048201600090556005820160009055600682016000610b1c9190611a30565b600782016000610b2c91906119f0565b6008820160006101000a81549060ff02191690555050806000016000610b5291906119f0565b806001016000610b6291906119f0565b806002016000610b7291906119f0565b806003016000610b8291906119f0565b8060040160009055806006016000610b9a9190611a30565b5050565b60006003805490509050600360405180610120016040528088815260200187815260200186815260200185815260200184815260200160008152602001600067ffffffffffffffff811115610bf657610bf5611b40565b5b604051908082528060200260200182016040528015610c2957816020015b6060815260200190600190039081610c145790505b5081526020016040518060400160405280600781526020017f6e6f74207365740000000000000000000000000000000000000000000000000081525081526020016000151581525090806001815401808255809150506001900390600052602060002090600902016000909190919091506000820151816000019081610caf9190612859565b506020820151816001019081610cc59190612859565b506040820151816002019081610cdb9190612859565b506060820151816003019081610cf19190612859565b506080820151816004015560a0820151816005015560c0820151816006019080519060200190610d22929190611997565b5060e0820151816007019081610d389190612859565b506101008201518160080160006101000a81548160ff0219169083151502179055505050336001600083815260200190815260200160002060006101000a81548173ffffffffffffffffffffffffffffffffffffffff021916908373ffffffffffffffffffffffffffffffffffffffff160217905550600260003373ffffffffffffffffffffffffffffffffffffffff1673ffffffffffffffffffffffffffffffffffffffff168152602001908152602001600020819080600181540180825580915050600190039060005260206000200160009091909190915055505050505050565b6060600260003373ffffffffffffffffffffffffffffffffffffffff1673ffffffffffffffffffffffffffffffffffffffff168152602001908152602001600020805480602002602001604051908101604052809291908181526020018280548015610ea757602002820191906000526020600020905b815481526020019060010190808311610e93575b5050505050905090565b610eb9611a51565b6003805490508210610f00576040517f08c379a0000000000000000000000000000000000000000000000000000000008152600401610ef790612a6c565b60405180910390fd5b60038281548110610f1457610f136125b2565b5b906000526020600020906009020160405180610120016040529081600082018054610f3e9061267c565b80601f0160208091040260200160405190810160405280929190818152602001828054610f6a9061267c565b8015610fb75780601f10610f8c57610100808354040283529160200191610fb7565b820191906000526020600020905b815481529060010190602001808311610f9a57829003601f168201915b50505050508152602001600182018054610fd09061267c565b80601f0160208091040260200160405190810160405280929190818152602001828054610ffc9061267c565b80156110495780601f1061101e57610100808354040283529160200191611049565b820191906000526020600020905b81548152906001019060200180831161102c57829003601f168201915b505050505081526020016002820180546110629061267c565b80601f016020809104026020016040519081016040528092919081815260200182805461108e9061267c565b80156110db5780601f106110b0576101008083540402835291602001916110db565b820191906000526020600020905b8154815290600101906020018083116110be57829003601f168201915b505050505081526020016003820180546110f49061267c565b80601f01602080910402602001604051908101604052809291908181526020018280546111209061267c565b801561116d5780601f106111425761010080835404028352916020019161116d565b820191906000526020600020905b81548152906001019060200180831161115057829003601f168201915b50505050508152602001600482015481526020016005820154815260200160068201805480602002602001604051908101604052809291908181526020016000905b8282101561125b5783829060005260206000200180546111ce9061267c565b80601f01602080910402602001604051908101604052809291908181526020018280546111fa9061267c565b80156112475780601f1061121c57610100808354040283529160200191611247565b820191906000526020600020905b81548152906001019060200180831161122a57829003601f168201915b5050505050815260200190600101906111af565b5050505081526020016007820180546112739061267c565b80601f016020809104026020016040519081016040528092919081815260200182805461129f9061267c565b80156112ec5780601f106112c1576101008083540402835291602001916112ec565b820191906000526020600020905b8154815290600101906020018083116112cf57829003601f168201915b505050505081526020016008820160009054906101000a900460ff1615151515815250509050919050565b60008054906101000a900473ffffffffffffffffffffffffffffffffffffffff1681565b60008054906101000a900473ffffffffffffffffffffffffffffffffffffffff1673ffffffffffffffffffffffffffffffffffffffff163373ffffffffffffffffffffffffffffffffffffffff16146113c9576040517f08c379a00000000000000000000000000000000000000000000000000000000081526004016113c09061262d565b60405180910390fd5b6040518060400160405280600481526020017f747275650000000000000000000000000000000000000000000000000000000081525060038281548110611413576114126125b2565b5b906000526020600020906009020160070190816114309190612859565b5050565b60606000600260003373ffffffffffffffffffffffffffffffffffffffff1673ffffffffffffffffffffffffffffffffffffffff1681526020019081526020016000208054806020026020016040519081016040528092919081815260200182805480156114c157602002820191906000526020600020905b8154815260200190600101908083116114ad575b505050505090506000815167ffffffffffffffff8111156114e5576114e4611b40565b5b60405190808252806020026020018201604052801561151e57816020015b61150b611a51565b8152602001906001900390816115035790505b50905060005b825181101561198e576000838281518110611542576115416125b2565b5b60200260200101519050600381815481106115605761155f6125b2565b5b90600052602060002090600902016040518061012001604052908160008201805461158a9061267c565b80601f01602080910402602001604051908101604052809291908181526020018280546115b69061267c565b80156116035780601f106115d857610100808354040283529160200191611603565b820191906000526020600020905b8154815290600101906020018083116115e657829003601f168201915b5050505050815260200160018201805461161c9061267c565b80601f01602080910402602001604051908101604052809291908181526020018280546116489061267c565b80156116955780601f1061166a57610100808354040283529160200191611695565b820191906000526020600020905b81548152906001019060200180831161167857829003601f168201915b505050505081526020016002820180546116ae9061267c565b80601f01602080910402602001604051908101604052809291908181526020018280546116da9061267c565b80156117275780601f106116fc57610100808354040283529160200191611727565b820191906000526020600020905b81548152906001019060200180831161170a57829003601f168201915b505050505081526020016003820180546117409061267c565b80601f016020809104026020016040519081016040528092919081815260200182805461176c9061267c565b80156117b95780601f1061178e576101008083540402835291602001916117b9565b820191906000526020600020905b81548152906001019060200180831161179c57829003601f168201915b50505050508152602001600482015481526020016005820154815260200160068201805480602002602001604051908101604052809291908181526020016000905b828210156118a757838290600052602060002001805461181a9061267c565b80601f01602080910402602001604051908101604052809291908181526020018280546118469061267c565b80156118935780601f1061186857610100808354040283529160200191611893565b820191906000526020600020905b81548152906001019060200180831161187657829003601f168201915b5050505050815260200190600101906117fb565b5050505081526020016007820180546118bf9061267c565b80601f01602080910402602001604051908101604052809291908181526020018280546118eb9061267c565b80156119385780601f1061190d57610100808354040283529160200191611938565b820191906000526020600020905b81548152906001019060200180831161191b57829003601f168201915b505050505081526020016008820160009054906101000a900460ff16151515158152505083838151811061196f5761196e6125b2565b5b602002602001018190525050808061198690612a8c565b915050611524565b50809250505090565b8280548282559060005260206000209081019282156119df579160200282015b828111156119de5782518290816119ce9190612859565b50916020019190600101906119b7565b5b5090506119ec9190611a9f565b5090565b5080546119fc9061267c565b6000825580601f10611a0e5750611a2d565b601f016020900490600052602060002090810190611a2c9190611ac3565b5b50565b5080546000825590600052602060002090810190611a4e9190611a9f565b50565b60405180610120016040528060608152602001606081526020016060815260200160608152602001600081526020016000815260200160608152602001606081526020016000151581525090565b5b80821115611abf5760008181611ab691906119f0565b50600101611aa0565b5090565b5b80821115611adc576000816000905550600101611ac4565b5090565b6000604051905090565b600080fd5b600080fd5b6000819050919050565b611b0781611af4565b8114611b1257600080fd5b50565b600081359050611b2481611afe565b92915050565b600080fd5b6000601f19601f8301169050919050565b7f4e487b7100000000000000000000000000000000000000000000000000000000600052604160045260246000fd5b611b7882611b2f565b810181811067ffffffffffffffff82111715611b9757611b96611b40565b5b80604052505050565b6000611baa611ae0565b9050611bb68282611b6f565b919050565b600067ffffffffffffffff821115611bd657611bd5611b40565b5b602082029050602081019050919050565b600080fd5b600080fd5b600067ffffffffffffffff821115611c0c57611c0b611b40565b5b611c1582611b2f565b9050602081019050919050565b82818337600083830152505050565b6000611c44611c3f84611bf1565b611ba0565b905082815260208101848484011115611c6057611c5f611bec565b5b611c6b848285611c22565b509392505050565b600082601f830112611c8857611c87611b2a565b5b8135611c98848260208601611c31565b91505092915050565b6000611cb4611caf84611bbb565b611ba0565b90508083825260208201905060208402830185811115611cd757611cd6611be7565b5b835b81811015611d1e57803567ffffffffffffffff811115611cfc57611cfb611b2a565b5b808601611d098982611c73565b85526020850194505050602081019050611cd9565b5050509392505050565b600082601f830112611d3d57611d3c611b2a565b5b8135611d4d848260208601611ca1565b91505092915050565b60008060408385031215611d6d57611d6c611aea565b5b6000611d7b85828601611b15565b925050602083013567ffffffffffffffff811115611d9c57611d9b611aef565b5b611da885828601611d28565b9150509250929050565b600060208284031215611dc857611dc7611aea565b5b6000611dd684828501611b15565b91505092915050565b600081519050919050565b600082825260208201905092915050565b60005b83811015611e19578082015181840152602081019050611dfe565b60008484015250505050565b6000611e3082611ddf565b611e3a8185611dea565b9350611e4a818560208601611dfb565b611e5381611b2f565b840191505092915050565b60006020820190508181036000830152611e788184611e25565b905092915050565b600081519050919050565b600082825260208201905092915050565b6000819050602082019050919050565b600082825260208201905092915050565b6000611ec882611ddf565b611ed28185611eac565b9350611ee2818560208601611dfb565b611eeb81611b2f565b840191505092915050565b611eff81611af4565b82525050565b600081519050919050565b600082825260208201905092915050565b6000819050602082019050919050565b6000611f3d8383611ebd565b905092915050565b6000602082019050919050565b6000611f5d82611f05565b611f678185611f10565b935083602082028501611f7985611f21565b8060005b85811015611fb55784840389528151611f968582611f31565b9450611fa183611f45565b925060208a01995050600181019050611f7d565b50829750879550505050505092915050565b60008115159050919050565b611fdc81611fc7565b82525050565b60006101208301600083015184820360008601526120008282611ebd565b9150506020830151848203602086015261201a8282611ebd565b915050604083015184820360408601526120348282611ebd565b9150506060830151848203606086015261204e8282611ebd565b91505060808301516120636080860182611ef6565b5060a083015161207660a0860182611ef6565b5060c083015184820360c086015261208e8282611f52565b91505060e083015184820360e08601526120a88282611ebd565b9150506101008301516120bf610100860182611fd3565b508091505092915050565b60006120d68383611fe2565b905092915050565b6000602082019050919050565b60006120f682611e80565b6121008185611e8b565b93508360208202850161211285611e9c565b8060005b8581101561214e578484038952815161212f85826120ca565b945061213a836120de565b925060208a01995050600181019050612116565b50829750879550505050505092915050565b6000602082019050818103600083015261217a81846120eb565b905092915050565b6000806040838503121561219957612198611aea565b5b60006121a785828601611b15565b92505060206121b885828601611b15565b9150509250929050565b600073ffffffffffffffffffffffffffffffffffffffff82169050919050565b60006121ed826121c2565b9050919050565b6121fd816121e2565b82525050565b600060208201905061221860008301846121f4565b92915050565b600080600080600060a0868803121561223a57612239611aea565b5b600086013567ffffffffffffffff81111561225857612257611aef565b5b61226488828901611c73565b955050602086013567ffffffffffffffff81111561228557612284611aef565b5b61229188828901611c73565b945050604086013567ffffffffffffffff8111156122b2576122b1611aef565b5b6122be88828901611c73565b935050606086013567ffffffffffffffff8111156122df576122de611aef565b5b6122eb88828901611c73565b92505060806122fc88828901611b15565b9150509295509295909350565b600081519050919050565b600082825260208201905092915050565b6000819050602082019050919050565b60006123418383611ef6565b60208301905092915050565b6000602082019050919050565b600061236582612309565b61236f8185612314565b935061237a83612325565b8060005b838110156123ab5781516123928882612335565b975061239d8361234d565b92505060018101905061237e565b5085935050505092915050565b600060208201905081810360008301526123d2818461235a565b905092915050565b60006101208301600083015184820360008601526123f88282611ebd565b915050602083015184820360208601526124128282611ebd565b9150506040830151848203604086015261242c8282611ebd565b915050606083015184820360608601526124468282611ebd565b915050608083015161245b6080860182611ef6565b5060a083015161246e60a0860182611ef6565b5060c083015184820360c08601526124868282611f52565b91505060e083015184820360e08601526124a08282611ebd565b9150506101008301516124b7610100860182611fd3565b508091505092915050565b600060208201905081810360008301526124dc81846123da565b905092915050565b60006124ef826121c2565b9050919050565b6124ff816124e4565b82525050565b600060208201905061251a60008301846124f6565b92915050565b7f4f6e6c792070726f6a656374206f776e65722063616e20736574206d696c657360008201527f746f6e65732e0000000000000000000000000000000000000000000000000000602082015250565b600061257c602683611dea565b915061258782612520565b604082019050919050565b600060208201905081810360008301526125ab8161256f565b9050919050565b7f4e487b7100000000000000000000000000000000000000000000000000000000600052603260045260246000fd5b7f596f7520646f206e6f7420686176652070726976696c65676573000000000000600082015250565b6000612617601a83611dea565b9150612622826125e1565b602082019050919050565b600060208201905081810360008301526126468161260a565b9050919050565b7f4e487b7100000000000000000000000000000000000000000000000000000000600052602260045260246000fd5b6000600282049050600182168061269457607f821691505b6020821081036126a7576126a661264d565b5b50919050565b60008190508160005260206000209050919050565b60006020601f8301049050919050565b600082821b905092915050565b60006008830261270f7fffffffffffffffffffffffffffffffffffffffffffffffffffffffffffffffff826126d2565b61271986836126d2565b95508019841693508086168417925050509392505050565b6000819050919050565b600061275661275161274c84611af4565b612731565b611af4565b9050919050565b6000819050919050565b6127708361273b565b61278461277c8261275d565b8484546126df565b825550505050565b600090565b61279961278c565b6127a4818484612767565b505050565b5b818110156127c8576127bd600082612791565b6001810190506127aa565b5050565b601f82111561280d576127de816126ad565b6127e7846126c2565b810160208510156127f6578190505b61280a612802856126c2565b8301826127a9565b50505b505050565b600082821c905092915050565b600061283060001984600802612812565b1980831691505092915050565b6000612849838361281f565b9150826002028217905092915050565b61286282611ddf565b67ffffffffffffffff81111561287b5761287a611b40565b5b612885825461267c565b6128908282856127cc565b600060209050601f8311600181146128c357600084156128b1578287015190505b6128bb858261283d565b865550612923565b601f1984166128d1866126ad565b60005b828110156128f9578489015182556001820191506020850194506020810190506128d4565b868310156129165784890151612912601f89168261281f565b8355505b6001600288020188555050505b505050505050565b7f4e487b7100000000000000000000000000000000000000000000000000000000600052601160045260246000fd5b600061296582611af4565b915061297083611af4565b92508282019050808211156129885761298761292b565b5b92915050565b7f4f6e6c792070726f6a656374206f776e65722063616e2061626f72742070726f60008201527f6a6563742e000000000000000000000000000000000000000000000000000000602082015250565b60006129ea602583611dea565b91506129f58261298e565b604082019050919050565b60006020820190508181036000830152612a19816129dd565b9050919050565b7f496e76616c69642070726f6a6563742049440000000000000000000000000000600082015250565b6000612a56601283611dea565b9150612a6182612a20565b602082019050919050565b60006020820190508181036000830152612a8581612a49565b9050919050565b6000612a9782611af4565b91507fffffffffffffffffffffffffffffffffffffffffffffffffffffffffffffffff8203612ac957612ac861292b565b5b60018201905091905056fea26469706673582212203c1384f4276c9921aa789333f9b18813a1bd80c308152bfe810471aac37be5a464736f6c63430008130033",
  "immutableReferences": {},
  "source": "//SPDX-License-Identifier: UNLICENSED\npragma solidity >=0.6.0 < 0.9.0;\n\ncontract ProjectDetails {\n    struct Project {\n        string title;\n        string description;\n        string startDate;\n        string endDate;\n        uint256 amountToRaise;\n        uint256 amountRaised;\n        string[] milestones;\n        string approved;\n        bool goalReached;\n    }\n\n    address public admin;\n\n    mapping(uint256 => address) private projectOwners;\n    mapping(address => uint256[]) private projectsByOwner;\n\n    Project[] private projects;\n\n    constructor(address _admin) {\n        admin = _admin;\n    }\n\n    function createProject(string memory _title, string memory _description, string memory _startDate, string memory _endDate, uint256 _amountToRaise) public {\n        uint256 projectId = projects.length;\n        projects.push(Project(_title, _description, _startDate, _endDate, _amountToRaise, 0, new string[](0), \"not set\", false));\n        projectOwners[projectId] = msg.sender;\n        projectsByOwner[msg.sender].push(projectId);\n    }\n\n    function setMilestones(uint256 _projectId, string[] memory _milestones) public {\n        require(projectOwners[_projectId] == msg.sender, \"Only project owner can set milestones.\");\n        projects[_projectId].milestones = _milestones;\n    }\n\n    function addAmountRaised(uint256 _projectId, uint256 _amountRaised) public {\n        // require(projects[_projectId].amountRaised + _amountRaised < projects[_projectId].amountToRaise, \"Amount should be less than funding goal\");\n        projects[_projectId].amountRaised += _amountRaised;\n    }\n\n    function getProjectOwner(uint256 _projectId) public view returns (address payable) {\n        return payable(projectOwners[_projectId]);\n    }\n\n    function getCurrentProjectId() public view returns (uint256[] memory) {\n        return projectsByOwner[msg.sender];\n    }\n\n    function approveProject(uint256 _projectId) public {\n        require(msg.sender == admin, \"You do not have privileges\");\n        projects[_projectId].approved = \"true\";\n    }\n\n    function rejectProject(uint256 _projectId) public {\n        require(msg.sender == admin, \"You do not have privileges\");\n        projects[_projectId].approved = \"false\";\n    }\n\n    function abortProject(uint _index) public {\n        require(projectOwners[_index] == msg.sender, \"Only project owner can abort project.\");\n\n\n        Project storage projectToDelete = projects[_index];\n\n        // Delete the project from the array\n        delete projects[_index];\n\n        // Delete the project data from storage\n        delete projectToDelete.title;\n        delete projectToDelete.description;\n        delete projectToDelete.startDate;\n        delete projectToDelete.endDate;\n        delete projectToDelete.amountToRaise;\n        delete projectToDelete.milestones;\n    }\n\n    function isProjectApproved(uint256 _projectId) public view returns (string memory) {\n        return projects[_projectId].approved;\n    }\n\n    function getProject(uint256 projectId) public view returns (Project memory) {\n        require(projectId < projects.length, \"Invalid project ID\");\n        return projects[projectId];\n    }\n\n\n    function getProjectDetails() public view returns (Project[] memory) {\n        uint256[] memory projectIds = projectsByOwner[msg.sender];\n        Project[] memory result = new Project[](projectIds.length);\n\n        for (uint256 i = 0; i < projectIds.length; i++) {\n            uint256 projectId = projectIds[i];\n            result[i] = projects[projectId];\n        }\n\n        return result;\n    }\n\n    function getAllProjects() public view returns (Project[] memory) {\n        \n        return projects;\n    }\n}\n",
  "sourcePath": "/home/mypc/Documents/mypc/Personal/B.E./uBE/Mega Project/Implementation/v 2.0/contracts/ProjectDetails.sol",
  "compiler": {
    "name": "solc",
    "version": "0.8.19+commit.7dd6d404.Emscripten.clang"
  },
  "schemaVersion": "3.4.13",
  "updatedAt": "2023-06-02T19:05:56.188Z",
  "networkType": "ethereum",
  "devdoc": {
    "kind": "dev",
    "methods": {},
    "version": 1
  },
  "userdoc": {
    "kind": "user",
    "methods": {},
    "version": 1
  }
}